{
  "_format": "hh-sol-artifact-1",
  "contractName": "RentableNFT",
  "sourceName": "contracts/RentableNFT.sol",
  "abi": [
    {
      "inputs": [
        {
          "internalType": "string",
          "name": "_name",
          "type": "string"
        },
        {
          "internalType": "string",
          "name": "_symbol",
          "type": "string"
        }
      ],
      "stateMutability": "nonpayable",
      "type": "constructor"
    },
    {
      "anonymous": false,
      "inputs": [
        {
          "indexed": true,
          "internalType": "address",
          "name": "owner",
          "type": "address"
        },
        {
          "indexed": true,
          "internalType": "address",
          "name": "approved",
          "type": "address"
        },
        {
          "indexed": true,
          "internalType": "uint256",
          "name": "tokenId",
          "type": "uint256"
        }
      ],
      "name": "Approval",
      "type": "event"
    },
    {
      "anonymous": false,
      "inputs": [
        {
          "indexed": true,
          "internalType": "address",
          "name": "owner",
          "type": "address"
        },
        {
          "indexed": true,
          "internalType": "address",
          "name": "operator",
          "type": "address"
        },
        {
          "indexed": false,
          "internalType": "bool",
          "name": "approved",
          "type": "bool"
        }
      ],
      "name": "ApprovalForAll",
      "type": "event"
    },
    {
      "anonymous": false,
      "inputs": [
        {
          "indexed": true,
          "internalType": "address",
          "name": "from",
          "type": "address"
        },
        {
          "indexed": true,
          "internalType": "address",
          "name": "to",
          "type": "address"
        },
        {
          "indexed": true,
          "internalType": "uint256",
          "name": "tokenId",
          "type": "uint256"
        }
      ],
      "name": "Transfer",
      "type": "event"
    },
    {
      "anonymous": false,
      "inputs": [
        {
          "indexed": true,
          "internalType": "uint256",
          "name": "tokenId",
          "type": "uint256"
        },
        {
          "indexed": true,
          "internalType": "address",
          "name": "user",
          "type": "address"
        },
        {
          "indexed": false,
          "internalType": "uint64",
          "name": "expires",
          "type": "uint64"
        }
      ],
      "name": "UpdateUser",
      "type": "event"
    },
    {
      "inputs": [
        {
          "internalType": "address",
          "name": "to",
          "type": "address"
        },
        {
          "internalType": "uint256",
          "name": "tokenId",
          "type": "uint256"
        }
      ],
      "name": "approve",
      "outputs": [],
      "stateMutability": "nonpayable",
      "type": "function"
    },
    {
      "inputs": [
        {
          "internalType": "address",
          "name": "owner",
          "type": "address"
        }
      ],
      "name": "balanceOf",
      "outputs": [
        {
          "internalType": "uint256",
          "name": "",
          "type": "uint256"
        }
      ],
      "stateMutability": "view",
      "type": "function"
    },
    {
      "inputs": [
        {
          "internalType": "uint256",
          "name": "tokenId",
          "type": "uint256"
        }
      ],
      "name": "getApproved",
      "outputs": [
        {
          "internalType": "address",
          "name": "",
          "type": "address"
        }
      ],
      "stateMutability": "view",
      "type": "function"
    },
    {
      "inputs": [
        {
          "internalType": "address",
          "name": "owner",
          "type": "address"
        },
        {
          "internalType": "address",
          "name": "operator",
          "type": "address"
        }
      ],
      "name": "isApprovedForAll",
      "outputs": [
        {
          "internalType": "bool",
          "name": "",
          "type": "bool"
        }
      ],
      "stateMutability": "view",
      "type": "function"
    },
    {
      "inputs": [
        {
          "internalType": "uint256",
          "name": "_tokenId",
          "type": "uint256"
        },
        {
          "internalType": "string",
          "name": "_tokenURI",
          "type": "string"
        }
      ],
      "name": "mint",
      "outputs": [],
      "stateMutability": "nonpayable",
      "type": "function"
    },
    {
      "inputs": [],
      "name": "name",
      "outputs": [
        {
          "internalType": "string",
          "name": "",
          "type": "string"
        }
      ],
      "stateMutability": "view",
      "type": "function"
    },
    {
      "inputs": [
        {
          "internalType": "uint256",
          "name": "tokenId",
          "type": "uint256"
        }
      ],
      "name": "ownerOf",
      "outputs": [
        {
          "internalType": "address",
          "name": "",
          "type": "address"
        }
      ],
      "stateMutability": "view",
      "type": "function"
    },
    {
      "inputs": [
        {
          "internalType": "uint256",
          "name": "_tokenId",
          "type": "uint256"
        },
        {
          "internalType": "address",
          "name": "_user",
          "type": "address"
        },
        {
          "internalType": "uint64",
          "name": "_expires",
          "type": "uint64"
        }
      ],
      "name": "rentOut",
      "outputs": [],
      "stateMutability": "nonpayable",
      "type": "function"
    },
    {
      "inputs": [
        {
          "internalType": "address",
          "name": "from",
          "type": "address"
        },
        {
          "internalType": "address",
          "name": "to",
          "type": "address"
        },
        {
          "internalType": "uint256",
          "name": "tokenId",
          "type": "uint256"
        }
      ],
      "name": "safeTransferFrom",
      "outputs": [],
      "stateMutability": "nonpayable",
      "type": "function"
    },
    {
      "inputs": [
        {
          "internalType": "address",
          "name": "from",
          "type": "address"
        },
        {
          "internalType": "address",
          "name": "to",
          "type": "address"
        },
        {
          "internalType": "uint256",
          "name": "tokenId",
          "type": "uint256"
        },
        {
          "internalType": "bytes",
          "name": "_data",
          "type": "bytes"
        }
      ],
      "name": "safeTransferFrom",
      "outputs": [],
      "stateMutability": "nonpayable",
      "type": "function"
    },
    {
      "inputs": [
        {
          "internalType": "address",
          "name": "operator",
          "type": "address"
        },
        {
          "internalType": "bool",
          "name": "approved",
          "type": "bool"
        }
      ],
      "name": "setApprovalForAll",
      "outputs": [],
      "stateMutability": "nonpayable",
      "type": "function"
    },
    {
      "inputs": [
        {
          "internalType": "uint256",
          "name": "tokenId",
          "type": "uint256"
        },
        {
          "internalType": "address",
          "name": "user",
          "type": "address"
        },
        {
          "internalType": "uint64",
          "name": "expires",
          "type": "uint64"
        }
      ],
      "name": "setUser",
      "outputs": [],
      "stateMutability": "nonpayable",
      "type": "function"
    },
    {
      "inputs": [
        {
          "internalType": "bytes4",
          "name": "interfaceId",
          "type": "bytes4"
        }
      ],
      "name": "supportsInterface",
      "outputs": [
        {
          "internalType": "bool",
          "name": "",
          "type": "bool"
        }
      ],
      "stateMutability": "view",
      "type": "function"
    },
    {
      "inputs": [],
      "name": "symbol",
      "outputs": [
        {
          "internalType": "string",
          "name": "",
          "type": "string"
        }
      ],
      "stateMutability": "view",
      "type": "function"
    },
    {
      "inputs": [
        {
          "internalType": "uint256",
          "name": "_tokenId",
          "type": "uint256"
        }
      ],
      "name": "tokenURI",
      "outputs": [
        {
          "internalType": "string",
          "name": "",
          "type": "string"
        }
      ],
      "stateMutability": "view",
      "type": "function"
    },
    {
      "inputs": [
        {
          "internalType": "uint256",
          "name": "",
          "type": "uint256"
        }
      ],
      "name": "tokenURIs",
      "outputs": [
        {
          "internalType": "string",
          "name": "",
          "type": "string"
        }
      ],
      "stateMutability": "view",
      "type": "function"
    },
    {
      "inputs": [
        {
          "internalType": "address",
          "name": "from",
          "type": "address"
        },
        {
          "internalType": "address",
          "name": "to",
          "type": "address"
        },
        {
          "internalType": "uint256",
          "name": "tokenId",
          "type": "uint256"
        }
      ],
      "name": "transferFrom",
      "outputs": [],
      "stateMutability": "nonpayable",
      "type": "function"
    },
    {
      "inputs": [
        {
          "internalType": "uint256",
          "name": "tokenId",
          "type": "uint256"
        }
      ],
      "name": "userExpires",
      "outputs": [
        {
          "internalType": "uint256",
          "name": "",
          "type": "uint256"
        }
      ],
      "stateMutability": "view",
      "type": "function"
    },
    {
      "inputs": [
        {
          "internalType": "uint256",
          "name": "tokenId",
          "type": "uint256"
        }
      ],
      "name": "userOf",
      "outputs": [
        {
          "internalType": "address",
          "name": "",
          "type": "address"
        }
      ],
      "stateMutability": "view",
      "type": "function"
    }
  ],
  "bytecode": "0x60806040523480156200001157600080fd5b5060405162002f8b38038062002f8b83398181016040528101906200003791906200019b565b8181818181600090805190602001906200005392919062000079565b5080600190805190602001906200006c92919062000079565b505050505050506200037e565b8280546200008790620002a3565b90600052602060002090601f016020900481019282620000ab5760008555620000f7565b82601f10620000c657805160ff1916838001178555620000f7565b82800160010185558215620000f7579182015b82811115620000f6578251825591602001919060010190620000d9565b5b5090506200010691906200010a565b5090565b5b80821115620001255760008160009055506001016200010b565b5090565b6000620001406200013a8462000237565b6200020e565b9050828152602081018484840111156200015957600080fd5b620001668482856200026d565b509392505050565b600082601f8301126200018057600080fd5b81516200019284826020860162000129565b91505092915050565b60008060408385031215620001af57600080fd5b600083015167ffffffffffffffff811115620001ca57600080fd5b620001d8858286016200016e565b925050602083015167ffffffffffffffff811115620001f657600080fd5b62000204858286016200016e565b9150509250929050565b60006200021a6200022d565b9050620002288282620002d9565b919050565b6000604051905090565b600067ffffffffffffffff8211156200025557620002546200033e565b5b62000260826200036d565b9050602081019050919050565b60005b838110156200028d57808201518184015260208101905062000270565b838111156200029d576000848401525b50505050565b60006002820490506001821680620002bc57607f821691505b60208210811415620002d357620002d26200030f565b5b50919050565b620002e4826200036d565b810181811067ffffffffffffffff821117156200030657620003056200033e565b5b80604052505050565b7f4e487b7100000000000000000000000000000000000000000000000000000000600052602260045260246000fd5b7f4e487b7100000000000000000000000000000000000000000000000000000000600052604160045260246000fd5b6000601f19601f8301169050919050565b612bfd806200038e6000396000f3fe608060405234801561001057600080fd5b50600436106101215760003560e01c806377097fc8116100ad578063b88d4fde11610071578063b88d4fde1461032a578063c2f1f14a14610346578063c87b56dd14610376578063e030565e146103a6578063e985e9c5146103c257610121565b806377097fc8146102885780638fc88c48146102a457806395d89b41146102d4578063a22cb465146102f2578063ac9e5b431461030e57610121565b806323b872dd116100f457806323b872dd146101c057806342842e0e146101dc5780636352211e146101f85780636c8b703f1461022857806370a082311461025857610121565b806301ffc9a71461012657806306fdde0314610156578063081812fc14610174578063095ea7b3146101a4575b600080fd5b610140600480360381019061013b9190611dfa565b6103f2565b60405161014d9190612226565b60405180910390f35b61015e61046c565b60405161016b919061225c565b60405180910390f35b61018e60048036038101906101899190611e4c565b6104fe565b60405161019b91906121bf565b60405180910390f35b6101be60048036038101906101b99190611dbe565b610583565b005b6101da60048036038101906101d59190611cb8565b61069b565b005b6101f660048036038101906101f19190611cb8565b6106fb565b005b610212600480360381019061020d9190611e4c565b61071b565b60405161021f91906121bf565b60405180910390f35b610242600480360381019061023d9190611e4c565b6107cd565b60405161024f919061225c565b60405180910390f35b610272600480360381019061026d9190611c53565b61086d565b60405161027f919061243e565b60405180910390f35b6102a2600480360381019061029d9190611ec4565b610925565b005b6102be60048036038101906102b99190611e4c565b61095b565b6040516102cb919061243e565b60405180910390f35b6102dc610999565b6040516102e9919061225c565b60405180910390f35b61030c60048036038101906103079190611d82565b610a2b565b005b61032860048036038101906103239190611e75565b610a41565b005b610344600480360381019061033f9190611d07565b610a9c565b005b610360600480360381019061035b9190611e4c565b610afe565b60405161036d91906121bf565b60405180910390f35b610390600480360381019061038b9190611e4c565b610b83565b60405161039d919061225c565b60405180910390f35b6103c060048036038101906103bb9190611e75565b610c28565b005b6103dc60048036038101906103d79190611c7c565b610d4b565b6040516103e99190612226565b60405180910390f35b60007fad092b5c000000000000000000000000000000000000000000000000000000007bffffffffffffffffffffffffffffffffffffffffffffffffffffffff1916827bffffffffffffffffffffffffffffffffffffffffffffffffffffffff19161480610465575061046482610ddf565b5b9050919050565b60606000805461047b90612699565b80601f01602080910402602001604051908101604052809291908181526020018280546104a790612699565b80156104f45780601f106104c9576101008083540402835291602001916104f4565b820191906000526020600020905b8154815290600101906020018083116104d757829003601f168201915b5050505050905090565b600061050982610ec1565b610548576040517f08c379a000000000000000000000000000000000000000000000000000000000815260040161053f906123be565b60405180910390fd5b6004600083815260200190815260200160002060009054906101000a900473ffffffffffffffffffffffffffffffffffffffff169050919050565b600061058e8261071b565b90508073ffffffffffffffffffffffffffffffffffffffff168373ffffffffffffffffffffffffffffffffffffffff1614156105ff576040517f08c379a00000000000000000000000000000000000000000000000000000000081526004016105f6906123fe565b60405180910390fd5b8073ffffffffffffffffffffffffffffffffffffffff1661061e610f2d565b73ffffffffffffffffffffffffffffffffffffffff16148061064d575061064c81610647610f2d565b610d4b565b5b61068c576040517f08c379a00000000000000000000000000000000000000000000000000000000081526004016106839061233e565b60405180910390fd5b6106968383610f35565b505050565b6106ac6106a6610f2d565b82610fee565b6106eb576040517f08c379a00000000000000000000000000000000000000000000000000000000081526004016106e29061241e565b60405180910390fd5b6106f68383836110cc565b505050565b61071683838360405180602001604052806000815250610a9c565b505050565b6000806002600084815260200190815260200160002060009054906101000a900473ffffffffffffffffffffffffffffffffffffffff169050600073ffffffffffffffffffffffffffffffffffffffff168173ffffffffffffffffffffffffffffffffffffffff1614156107c4576040517f08c379a00000000000000000000000000000000000000000000000000000000081526004016107bb9061237e565b60405180910390fd5b80915050919050565b600760205280600052604060002060009150905080546107ec90612699565b80601f016020809104026020016040519081016040528092919081815260200182805461081890612699565b80156108655780601f1061083a57610100808354040283529160200191610865565b820191906000526020600020905b81548152906001019060200180831161084857829003601f168201915b505050505081565b60008073ffffffffffffffffffffffffffffffffffffffff168273ffffffffffffffffffffffffffffffffffffffff1614156108de576040517f08c379a00000000000000000000000000000000000000000000000000000000081526004016108d59061235e565b60405180910390fd5b600360008373ffffffffffffffffffffffffffffffffffffffff1673ffffffffffffffffffffffffffffffffffffffff168152602001908152602001600020549050919050565b61092f3383611333565b80600760008481526020019081526020016000209080519060200190610956929190611a62565b505050565b60006006600083815260200190815260200160002060000160149054906101000a900467ffffffffffffffff1667ffffffffffffffff169050919050565b6060600180546109a890612699565b80601f01602080910402602001604051908101604052809291908181526020018280546109d490612699565b8015610a215780601f106109f657610100808354040283529160200191610a21565b820191906000526020600020905b815481529060010190602001808311610a0457829003601f168201915b5050505050905090565b610a3d610a36610f2d565b838361150d565b5050565b82610a4c3382610fee565b610a8b576040517f08c379a0000000000000000000000000000000000000000000000000000000008152600401610a82906123de565b60405180910390fd5b610a96848484610c28565b50505050565b610aad610aa7610f2d565b83610fee565b610aec576040517f08c379a0000000000000000000000000000000000000000000000000000000008152600401610ae39061241e565b60405180910390fd5b610af88484848461167a565b50505050565b6000426006600084815260200190815260200160002060000160149054906101000a900467ffffffffffffffff1667ffffffffffffffff1610610b79576006600083815260200190815260200160002060000160009054906101000a900473ffffffffffffffffffffffffffffffffffffffff169050610b7e565b600090505b919050565b6060600760008381526020019081526020016000208054610ba390612699565b80601f0160208091040260200160405190810160405280929190818152602001828054610bcf90612699565b8015610c1c5780601f10610bf157610100808354040283529160200191610c1c565b820191906000526020600020905b815481529060010190602001808311610bff57829003601f168201915b50505050509050919050565b610c323384610fee565b610c71576040517f08c379a0000000000000000000000000000000000000000000000000000000008152600401610c689061241e565b60405180910390fd5b6000600660008581526020019081526020016000209050828160000160006101000a81548173ffffffffffffffffffffffffffffffffffffffff021916908373ffffffffffffffffffffffffffffffffffffffff160217905550818160000160146101000a81548167ffffffffffffffff021916908367ffffffffffffffff1602179055508273ffffffffffffffffffffffffffffffffffffffff16847f4e06b4e7000e659094299b3533b47b6aa8ad048e95e872d23d1f4ee55af89cfe84604051610d3d9190612459565b60405180910390a350505050565b6000600560008473ffffffffffffffffffffffffffffffffffffffff1673ffffffffffffffffffffffffffffffffffffffff16815260200190815260200160002060008373ffffffffffffffffffffffffffffffffffffffff1673ffffffffffffffffffffffffffffffffffffffff16815260200190815260200160002060009054906101000a900460ff16905092915050565b60007f80ac58cd000000000000000000000000000000000000000000000000000000007bffffffffffffffffffffffffffffffffffffffffffffffffffffffff1916827bffffffffffffffffffffffffffffffffffffffffffffffffffffffff19161480610eaa57507f5b5e139f000000000000000000000000000000000000000000000000000000007bffffffffffffffffffffffffffffffffffffffffffffffffffffffff1916827bffffffffffffffffffffffffffffffffffffffffffffffffffffffff1916145b80610eba5750610eb9826116d6565b5b9050919050565b60008073ffffffffffffffffffffffffffffffffffffffff166002600084815260200190815260200160002060009054906101000a900473ffffffffffffffffffffffffffffffffffffffff1673ffffffffffffffffffffffffffffffffffffffff1614159050919050565b600033905090565b816004600083815260200190815260200160002060006101000a81548173ffffffffffffffffffffffffffffffffffffffff021916908373ffffffffffffffffffffffffffffffffffffffff160217905550808273ffffffffffffffffffffffffffffffffffffffff16610fa88361071b565b73ffffffffffffffffffffffffffffffffffffffff167f8c5be1e5ebec7d5bd14f71427d1e84f3dd0314c0f7b2291e5b200ac8c7c3b92560405160405180910390a45050565b6000610ff982610ec1565b611038576040517f08c379a000000000000000000000000000000000000000000000000000000000815260040161102f9061231e565b60405180910390fd5b60006110438361071b565b90508073ffffffffffffffffffffffffffffffffffffffff168473ffffffffffffffffffffffffffffffffffffffff16148061108557506110848185610d4b565b5b806110c357508373ffffffffffffffffffffffffffffffffffffffff166110ab846104fe565b73ffffffffffffffffffffffffffffffffffffffff16145b91505092915050565b8273ffffffffffffffffffffffffffffffffffffffff166110ec8261071b565b73ffffffffffffffffffffffffffffffffffffffff1614611142576040517f08c379a00000000000000000000000000000000000000000000000000000000081526004016111399061229e565b60405180910390fd5b600073ffffffffffffffffffffffffffffffffffffffff168273ffffffffffffffffffffffffffffffffffffffff1614156111b2576040517f08c379a00000000000000000000000000000000000000000000000000000000081526004016111a9906122de565b60405180910390fd5b6111bd838383611740565b6111c8600082610f35565b6001600360008573ffffffffffffffffffffffffffffffffffffffff1673ffffffffffffffffffffffffffffffffffffffff16815260200190815260200160002060008282546112189190612589565b925050819055506001600360008473ffffffffffffffffffffffffffffffffffffffff1673ffffffffffffffffffffffffffffffffffffffff168152602001908152602001600020600082825461126f9190612533565b92505081905550816002600083815260200190815260200160002060006101000a81548173ffffffffffffffffffffffffffffffffffffffff021916908373ffffffffffffffffffffffffffffffffffffffff160217905550808273ffffffffffffffffffffffffffffffffffffffff168473ffffffffffffffffffffffffffffffffffffffff167fddf252ad1be2c89b69c2b068fc378daa952ba7f163c4a11628f55a4df523b3ef60405160405180910390a461132e83838361189e565b505050565b600073ffffffffffffffffffffffffffffffffffffffff168273ffffffffffffffffffffffffffffffffffffffff1614156113a3576040517f08c379a000000000000000000000000000000000000000000000000000000000815260040161139a9061239e565b60405180910390fd5b6113ac81610ec1565b156113ec576040517f08c379a00000000000000000000000000000000000000000000000000000000081526004016113e3906122be565b60405180910390fd5b6113f860008383611740565b6001600360008473ffffffffffffffffffffffffffffffffffffffff1673ffffffffffffffffffffffffffffffffffffffff16815260200190815260200160002060008282546114489190612533565b92505081905550816002600083815260200190815260200160002060006101000a81548173ffffffffffffffffffffffffffffffffffffffff021916908373ffffffffffffffffffffffffffffffffffffffff160217905550808273ffffffffffffffffffffffffffffffffffffffff16600073ffffffffffffffffffffffffffffffffffffffff167fddf252ad1be2c89b69c2b068fc378daa952ba7f163c4a11628f55a4df523b3ef60405160405180910390a46115096000838361189e565b5050565b8173ffffffffffffffffffffffffffffffffffffffff168373ffffffffffffffffffffffffffffffffffffffff16141561157c576040517f08c379a0000000000000000000000000000000000000000000000000000000008152600401611573906122fe565b60405180910390fd5b80600560008573ffffffffffffffffffffffffffffffffffffffff1673ffffffffffffffffffffffffffffffffffffffff16815260200190815260200160002060008473ffffffffffffffffffffffffffffffffffffffff1673ffffffffffffffffffffffffffffffffffffffff16815260200190815260200160002060006101000a81548160ff0219169083151502179055508173ffffffffffffffffffffffffffffffffffffffff168373ffffffffffffffffffffffffffffffffffffffff167f17307eab39ab6107e8899845ad3d59bd9653f200f220920489ca2b5937696c318360405161166d9190612226565b60405180910390a3505050565b6116858484846110cc565b611691848484846118a3565b6116d0576040517f08c379a00000000000000000000000000000000000000000000000000000000081526004016116c79061227e565b60405180910390fd5b50505050565b60007f01ffc9a7000000000000000000000000000000000000000000000000000000007bffffffffffffffffffffffffffffffffffffffffffffffffffffffff1916827bffffffffffffffffffffffffffffffffffffffffffffffffffffffff1916149050919050565b61174b838383611a3a565b8173ffffffffffffffffffffffffffffffffffffffff168373ffffffffffffffffffffffffffffffffffffffff16141580156117ea5750600073ffffffffffffffffffffffffffffffffffffffff166006600083815260200190815260200160002060000160009054906101000a900473ffffffffffffffffffffffffffffffffffffffff1673ffffffffffffffffffffffffffffffffffffffff1614155b156118995760066000828152602001908152602001600020600080820160006101000a81549073ffffffffffffffffffffffffffffffffffffffff02191690556000820160146101000a81549067ffffffffffffffff02191690555050600073ffffffffffffffffffffffffffffffffffffffff16817f4e06b4e7000e659094299b3533b47b6aa8ad048e95e872d23d1f4ee55af89cfe60006040516118909190612241565b60405180910390a35b505050565b505050565b60006118c48473ffffffffffffffffffffffffffffffffffffffff16611a3f565b15611a2d578373ffffffffffffffffffffffffffffffffffffffff1663150b7a026118ed610f2d565b8786866040518563ffffffff1660e01b815260040161190f94939291906121da565b602060405180830381600087803b15801561192957600080fd5b505af192505050801561195a57506040513d601f19601f820116820180604052508101906119579190611e23565b60015b6119dd573d806000811461198a576040519150601f19603f3d011682016040523d82523d6000602084013e61198f565b606091505b506000815114156119d5576040517f08c379a00000000000000000000000000000000000000000000000000000000081526004016119cc9061227e565b60405180910390fd5b805181602001fd5b63150b7a0260e01b7bffffffffffffffffffffffffffffffffffffffffffffffffffffffff1916817bffffffffffffffffffffffffffffffffffffffffffffffffffffffff191614915050611a32565b600190505b949350505050565b505050565b6000808273ffffffffffffffffffffffffffffffffffffffff163b119050919050565b828054611a6e90612699565b90600052602060002090601f016020900481019282611a905760008555611ad7565b82601f10611aa957805160ff1916838001178555611ad7565b82800160010185558215611ad7579182015b82811115611ad6578251825591602001919060010190611abb565b5b509050611ae49190611ae8565b5090565b5b80821115611b01576000816000905550600101611ae9565b5090565b6000611b18611b1384612499565b612474565b905082815260208101848484011115611b3057600080fd5b611b3b848285612657565b509392505050565b6000611b56611b51846124ca565b612474565b905082815260208101848484011115611b6e57600080fd5b611b79848285612657565b509392505050565b600081359050611b9081612b54565b92915050565b600081359050611ba581612b6b565b92915050565b600081359050611bba81612b82565b92915050565b600081519050611bcf81612b82565b92915050565b600082601f830112611be657600080fd5b8135611bf6848260208601611b05565b91505092915050565b600082601f830112611c1057600080fd5b8135611c20848260208601611b43565b91505092915050565b600081359050611c3881612b99565b92915050565b600081359050611c4d81612bb0565b92915050565b600060208284031215611c6557600080fd5b6000611c7384828501611b81565b91505092915050565b60008060408385031215611c8f57600080fd5b6000611c9d85828601611b81565b9250506020611cae85828601611b81565b9150509250929050565b600080600060608486031215611ccd57600080fd5b6000611cdb86828701611b81565b9350506020611cec86828701611b81565b9250506040611cfd86828701611c29565b9150509250925092565b60008060008060808587031215611d1d57600080fd5b6000611d2b87828801611b81565b9450506020611d3c87828801611b81565b9350506040611d4d87828801611c29565b925050606085013567ffffffffffffffff811115611d6a57600080fd5b611d7687828801611bd5565b91505092959194509250565b60008060408385031215611d9557600080fd5b6000611da385828601611b81565b9250506020611db485828601611b96565b9150509250929050565b60008060408385031215611dd157600080fd5b6000611ddf85828601611b81565b9250506020611df085828601611c29565b9150509250929050565b600060208284031215611e0c57600080fd5b6000611e1a84828501611bab565b91505092915050565b600060208284031215611e3557600080fd5b6000611e4384828501611bc0565b91505092915050565b600060208284031215611e5e57600080fd5b6000611e6c84828501611c29565b91505092915050565b600080600060608486031215611e8a57600080fd5b6000611e9886828701611c29565b9350506020611ea986828701611b81565b9250506040611eba86828701611c3e565b9150509250925092565b60008060408385031215611ed757600080fd5b6000611ee585828601611c29565b925050602083013567ffffffffffffffff811115611f0257600080fd5b611f0e85828601611bff565b9150509250929050565b611f21816125bd565b82525050565b611f30816125cf565b82525050565b6000611f41826124fb565b611f4b8185612511565b9350611f5b818560208601612666565b611f6481612789565b840191505092915050565b611f7881612645565b82525050565b6000611f8982612506565b611f938185612522565b9350611fa3818560208601612666565b611fac81612789565b840191505092915050565b6000611fc4603283612522565b9150611fcf8261279a565b604082019050919050565b6000611fe7602583612522565b9150611ff2826127e9565b604082019050919050565b600061200a601c83612522565b915061201582612838565b602082019050919050565b600061202d602483612522565b915061203882612861565b604082019050919050565b6000612050601983612522565b915061205b826128b0565b602082019050919050565b6000612073602c83612522565b915061207e826128d9565b604082019050919050565b6000612096603883612522565b91506120a182612928565b604082019050919050565b60006120b9602a83612522565b91506120c482612977565b604082019050919050565b60006120dc602983612522565b91506120e7826129c6565b604082019050919050565b60006120ff602083612522565b915061210a82612a15565b602082019050919050565b6000612122602c83612522565b915061212d82612a3e565b604082019050919050565b6000612145602083612522565b915061215082612a8d565b602082019050919050565b6000612168602183612522565b915061217382612ab6565b604082019050919050565b600061218b603183612522565b915061219682612b05565b604082019050919050565b6121aa81612627565b82525050565b6121b981612631565b82525050565b60006020820190506121d46000830184611f18565b92915050565b60006080820190506121ef6000830187611f18565b6121fc6020830186611f18565b61220960408301856121a1565b818103606083015261221b8184611f36565b905095945050505050565b600060208201905061223b6000830184611f27565b92915050565b60006020820190506122566000830184611f6f565b92915050565b600060208201905081810360008301526122768184611f7e565b905092915050565b6000602082019050818103600083015261229781611fb7565b9050919050565b600060208201905081810360008301526122b781611fda565b9050919050565b600060208201905081810360008301526122d781611ffd565b9050919050565b600060208201905081810360008301526122f781612020565b9050919050565b6000602082019050818103600083015261231781612043565b9050919050565b6000602082019050818103600083015261233781612066565b9050919050565b6000602082019050818103600083015261235781612089565b9050919050565b60006020820190508181036000830152612377816120ac565b9050919050565b60006020820190508181036000830152612397816120cf565b9050919050565b600060208201905081810360008301526123b7816120f2565b9050919050565b600060208201905081810360008301526123d781612115565b9050919050565b600060208201905081810360008301526123f781612138565b9050919050565b600060208201905081810360008301526124178161215b565b9050919050565b600060208201905081810360008301526124378161217e565b9050919050565b600060208201905061245360008301846121a1565b92915050565b600060208201905061246e60008301846121b0565b92915050565b600061247e61248f565b905061248a82826126cb565b919050565b6000604051905090565b600067ffffffffffffffff8211156124b4576124b361275a565b5b6124bd82612789565b9050602081019050919050565b600067ffffffffffffffff8211156124e5576124e461275a565b5b6124ee82612789565b9050602081019050919050565b600081519050919050565b600081519050919050565b600082825260208201905092915050565b600082825260208201905092915050565b600061253e82612627565b915061254983612627565b9250827fffffffffffffffffffffffffffffffffffffffffffffffffffffffffffffffff0382111561257e5761257d6126fc565b5b828201905092915050565b600061259482612627565b915061259f83612627565b9250828210156125b2576125b16126fc565b5b828203905092915050565b60006125c882612607565b9050919050565b60008115159050919050565b60007fffffffff0000000000000000000000000000000000000000000000000000000082169050919050565b600073ffffffffffffffffffffffffffffffffffffffff82169050919050565b6000819050919050565b600067ffffffffffffffff82169050919050565b600061265082612631565b9050919050565b82818337600083830152505050565b60005b83811015612684578082015181840152602081019050612669565b83811115612693576000848401525b50505050565b600060028204905060018216806126b157607f821691505b602082108114156126c5576126c461272b565b5b50919050565b6126d482612789565b810181811067ffffffffffffffff821117156126f3576126f261275a565b5b80604052505050565b7f4e487b7100000000000000000000000000000000000000000000000000000000600052601160045260246000fd5b7f4e487b7100000000000000000000000000000000000000000000000000000000600052602260045260246000fd5b7f4e487b7100000000000000000000000000000000000000000000000000000000600052604160045260246000fd5b6000601f19601f8301169050919050565b7f4552433732313a207472616e7366657220746f206e6f6e20455243373231526560008201527f63656976657220696d706c656d656e7465720000000000000000000000000000602082015250565b7f4552433732313a207472616e736665722066726f6d20696e636f72726563742060008201527f6f776e6572000000000000000000000000000000000000000000000000000000602082015250565b7f4552433732313a20746f6b656e20616c7265616479206d696e74656400000000600082015250565b7f4552433732313a207472616e7366657220746f20746865207a65726f2061646460008201527f7265737300000000000000000000000000000000000000000000000000000000602082015250565b7f4552433732313a20617070726f766520746f2063616c6c657200000000000000600082015250565b7f4552433732313a206f70657261746f7220717565727920666f72206e6f6e657860008201527f697374656e7420746f6b656e0000000000000000000000000000000000000000602082015250565b7f4552433732313a20617070726f76652063616c6c6572206973206e6f74206f7760008201527f6e6572206e6f7220617070726f76656420666f7220616c6c0000000000000000602082015250565b7f4552433732313a2062616c616e636520717565727920666f7220746865207a6560008201527f726f206164647265737300000000000000000000000000000000000000000000602082015250565b7f4552433732313a206f776e657220717565727920666f72206e6f6e657869737460008201527f656e7420746f6b656e0000000000000000000000000000000000000000000000602082015250565b7f4552433732313a206d696e7420746f20746865207a65726f2061646472657373600082015250565b7f4552433732313a20617070726f76656420717565727920666f72206e6f6e657860008201527f697374656e7420746f6b656e0000000000000000000000000000000000000000602082015250565b7f63616c6c6572206973206e6f74206f776e6572206e6f7220617070726f766564600082015250565b7f4552433732313a20617070726f76616c20746f2063757272656e74206f776e6560008201527f7200000000000000000000000000000000000000000000000000000000000000602082015250565b7f4552433732313a207472616e736665722063616c6c6572206973206e6f74206f60008201527f776e6572206e6f7220617070726f766564000000000000000000000000000000602082015250565b612b5d816125bd565b8114612b6857600080fd5b50565b612b74816125cf565b8114612b7f57600080fd5b50565b612b8b816125db565b8114612b9657600080fd5b50565b612ba281612627565b8114612bad57600080fd5b50565b612bb981612631565b8114612bc457600080fd5b5056fea26469706673582212208d2f0f4744a91c1eca2232ef23b71721ef7a5443912df46c6b3d1382374e3fa564736f6c63430008040033",
  "linkReferences": {},
  "deployedLinkReferences": {}
}